{
  "_format": "hh-sol-artifact-1",
  "contractName": "CourseCertificate",
  "sourceName": "contracts/Certificate.sol",
  "abi": [
    {
      "inputs": [
        {
          "internalType": "string",
          "name": "courseName",
          "type": "string"
        }
      ],
      "stateMutability": "nonpayable",
      "type": "constructor"
    },
    {
      "inputs": [],
      "name": "CourseCertificate__NotIssued",
      "type": "error"
    },
    {
      "inputs": [],
      "name": "CourseCertificate__NotOwner",
      "type": "error"
    },
    {
      "anonymous": false,
      "inputs": [
        {
          "indexed": true,
          "internalType": "address",
          "name": "owner",
          "type": "address"
        },
        {
          "indexed": true,
          "internalType": "address",
          "name": "approved",
          "type": "address"
        },
        {
          "indexed": true,
          "internalType": "uint256",
          "name": "tokenId",
          "type": "uint256"
        }
      ],
      "name": "Approval",
      "type": "event"
    },
    {
      "anonymous": false,
      "inputs": [
        {
          "indexed": true,
          "internalType": "address",
          "name": "owner",
          "type": "address"
        },
        {
          "indexed": true,
          "internalType": "address",
          "name": "operator",
          "type": "address"
        },
        {
          "indexed": false,
          "internalType": "bool",
          "name": "approved",
          "type": "bool"
        }
      ],
      "name": "ApprovalForAll",
      "type": "event"
    },
    {
      "anonymous": false,
      "inputs": [
        {
          "indexed": false,
          "internalType": "address",
          "name": "student",
          "type": "address"
        }
      ],
      "name": "CertificateIssued",
      "type": "event"
    },
    {
      "anonymous": false,
      "inputs": [
        {
          "indexed": false,
          "internalType": "address",
          "name": "student",
          "type": "address"
        },
        {
          "indexed": false,
          "internalType": "uint256",
          "name": "tokenId",
          "type": "uint256"
        },
        {
          "components": [
            {
              "internalType": "string",
              "name": "s_courseName",
              "type": "string"
            },
            {
              "internalType": "string",
              "name": "ocid",
              "type": "string"
            }
          ],
          "indexed": false,
          "internalType": "struct CourseCertificate.Certificate",
          "name": "certificate",
          "type": "tuple"
        }
      ],
      "name": "CertificateMinted",
      "type": "event"
    },
    {
      "anonymous": false,
      "inputs": [
        {
          "indexed": true,
          "internalType": "address",
          "name": "from",
          "type": "address"
        },
        {
          "indexed": true,
          "internalType": "address",
          "name": "to",
          "type": "address"
        },
        {
          "indexed": true,
          "internalType": "uint256",
          "name": "tokenId",
          "type": "uint256"
        }
      ],
      "name": "Transfer",
      "type": "event"
    },
    {
      "inputs": [
        {
          "internalType": "address",
          "name": "to",
          "type": "address"
        },
        {
          "internalType": "uint256",
          "name": "tokenId",
          "type": "uint256"
        }
      ],
      "name": "approve",
      "outputs": [],
      "stateMutability": "nonpayable",
      "type": "function"
    },
    {
      "inputs": [
        {
          "internalType": "address",
          "name": "owner",
          "type": "address"
        }
      ],
      "name": "balanceOf",
      "outputs": [
        {
          "internalType": "uint256",
          "name": "",
          "type": "uint256"
        }
      ],
      "stateMutability": "view",
      "type": "function"
    },
    {
      "inputs": [
        {
          "internalType": "address",
          "name": "student",
          "type": "address"
        }
      ],
      "name": "checkCertificateOfStudent",
      "outputs": [
        {
          "internalType": "string",
          "name": "",
          "type": "string"
        }
      ],
      "stateMutability": "view",
      "type": "function"
    },
    {
      "inputs": [
        {
          "internalType": "uint256",
          "name": "tokenId",
          "type": "uint256"
        }
      ],
      "name": "getApproved",
      "outputs": [
        {
          "internalType": "address",
          "name": "",
          "type": "address"
        }
      ],
      "stateMutability": "view",
      "type": "function"
    },
    {
      "inputs": [],
      "name": "getCourseName",
      "outputs": [
        {
          "internalType": "string",
          "name": "",
          "type": "string"
        }
      ],
      "stateMutability": "view",
      "type": "function"
    },
    {
      "inputs": [],
      "name": "getOwner",
      "outputs": [
        {
          "internalType": "address",
          "name": "",
          "type": "address"
        }
      ],
      "stateMutability": "view",
      "type": "function"
    },
    {
      "inputs": [],
      "name": "getTokenCounter",
      "outputs": [
        {
          "components": [
            {
              "internalType": "uint256",
              "name": "_value",
              "type": "uint256"
            }
          ],
          "internalType": "struct Counters.Counter",
          "name": "",
          "type": "tuple"
        }
      ],
      "stateMutability": "view",
      "type": "function"
    },
    {
      "inputs": [
        {
          "internalType": "address",
          "name": "owner",
          "type": "address"
        },
        {
          "internalType": "address",
          "name": "operator",
          "type": "address"
        }
      ],
      "name": "isApprovedForAll",
      "outputs": [
        {
          "internalType": "bool",
          "name": "",
          "type": "bool"
        }
      ],
      "stateMutability": "view",
      "type": "function"
    },
    {
      "inputs": [
        {
          "internalType": "address",
          "name": "student",
          "type": "address"
        }
      ],
      "name": "isStudentCertificateIssued",
      "outputs": [
        {
          "internalType": "bool",
          "name": "",
          "type": "bool"
        }
      ],
      "stateMutability": "view",
      "type": "function"
    },
    {
      "inputs": [
        {
          "internalType": "address",
          "name": "student",
          "type": "address"
        },
        {
          "internalType": "string",
          "name": "courseName",
          "type": "string"
        }
      ],
      "name": "issueCertificate",
      "outputs": [],
      "stateMutability": "nonpayable",
      "type": "function"
    },
    {
      "inputs": [
        {
          "internalType": "string",
          "name": "ocid",
          "type": "string"
        }
      ],
      "name": "mintCertificate",
      "outputs": [
        {
          "internalType": "uint256",
          "name": "",
          "type": "uint256"
        }
      ],
      "stateMutability": "nonpayable",
      "type": "function"
    },
    {
      "inputs": [],
      "name": "name",
      "outputs": [
        {
          "internalType": "string",
          "name": "",
          "type": "string"
        }
      ],
      "stateMutability": "view",
      "type": "function"
    },
    {
      "inputs": [
        {
          "internalType": "uint256",
          "name": "tokenId",
          "type": "uint256"
        }
      ],
      "name": "ownerOf",
      "outputs": [
        {
          "internalType": "address",
          "name": "",
          "type": "address"
        }
      ],
      "stateMutability": "view",
      "type": "function"
    },
    {
      "inputs": [
        {
          "internalType": "address",
          "name": "operator",
          "type": "address"
        },
        {
          "internalType": "bool",
          "name": "approved",
          "type": "bool"
        }
      ],
      "name": "setApprovalForAll",
      "outputs": [],
      "stateMutability": "nonpayable",
      "type": "function"
    },
    {
      "inputs": [
        {
          "internalType": "bytes4",
          "name": "interfaceId",
          "type": "bytes4"
        }
      ],
      "name": "supportsInterface",
      "outputs": [
        {
          "internalType": "bool",
          "name": "",
          "type": "bool"
        }
      ],
      "stateMutability": "view",
      "type": "function"
    },
    {
      "inputs": [],
      "name": "symbol",
      "outputs": [
        {
          "internalType": "string",
          "name": "",
          "type": "string"
        }
      ],
      "stateMutability": "view",
      "type": "function"
    },
    {
      "inputs": [
        {
          "internalType": "uint256",
          "name": "tokenId",
          "type": "uint256"
        }
      ],
      "name": "tokenURI",
      "outputs": [
        {
          "internalType": "string",
          "name": "",
          "type": "string"
        }
      ],
      "stateMutability": "view",
      "type": "function"
    }
  ],
  "bytecode": "0x60806040523480156200001157600080fd5b506040516200391b3803806200391b8339818101604052810190620000379190620002b6565b6040518060400160405280601f81526020017f436f757273654365727469666963617465536f756c426f756e64546f6b656e008152506040518060400160405280600581526020017f43435342540000000000000000000000000000000000000000000000000000008152508160009081620000b4919062000552565b508060019081620000c6919062000552565b5050508060089081620000da919062000552565b5033600960006101000a81548173ffffffffffffffffffffffffffffffffffffffff021916908373ffffffffffffffffffffffffffffffffffffffff1602179055505062000639565b6000604051905090565b600080fd5b600080fd5b600080fd5b600080fd5b6000601f19601f8301169050919050565b7f4e487b7100000000000000000000000000000000000000000000000000000000600052604160045260246000fd5b6200018c8262000141565b810181811067ffffffffffffffff82111715620001ae57620001ad62000152565b5b80604052505050565b6000620001c362000123565b9050620001d1828262000181565b919050565b600067ffffffffffffffff821115620001f457620001f362000152565b5b620001ff8262000141565b9050602081019050919050565b60005b838110156200022c5780820151818401526020810190506200020f565b60008484015250505050565b60006200024f6200024984620001d6565b620001b7565b9050828152602081018484840111156200026e576200026d6200013c565b5b6200027b8482856200020c565b509392505050565b600082601f8301126200029b576200029a62000137565b5b8151620002ad84826020860162000238565b91505092915050565b600060208284031215620002cf57620002ce6200012d565b5b600082015167ffffffffffffffff811115620002f057620002ef62000132565b5b620002fe8482850162000283565b91505092915050565b600081519050919050565b7f4e487b7100000000000000000000000000000000000000000000000000000000600052602260045260246000fd5b600060028204905060018216806200035a57607f821691505b60208210810362000370576200036f62000312565b5b50919050565b60008190508160005260206000209050919050565b60006020601f8301049050919050565b600082821b905092915050565b600060088302620003da7fffffffffffffffffffffffffffffffffffffffffffffffffffffffffffffffff826200039b565b620003e686836200039b565b95508019841693508086168417925050509392505050565b6000819050919050565b6000819050919050565b6000620004336200042d6200042784620003fe565b62000408565b620003fe565b9050919050565b6000819050919050565b6200044f8362000412565b620004676200045e826200043a565b848454620003a8565b825550505050565b600090565b6200047e6200046f565b6200048b81848462000444565b505050565b5b81811015620004b357620004a760008262000474565b60018101905062000491565b5050565b601f8211156200050257620004cc8162000376565b620004d7846200038b565b81016020851015620004e7578190505b620004ff620004f6856200038b565b83018262000490565b50505b505050565b600082821c905092915050565b6000620005276000198460080262000507565b1980831691505092915050565b600062000542838362000514565b9150826002028217905092915050565b6200055d8262000307565b67ffffffffffffffff81111562000579576200057862000152565b5b62000585825462000341565b62000592828285620004b7565b600060209050601f831160018114620005ca5760008415620005b5578287015190505b620005c1858262000534565b86555062000631565b601f198416620005da8662000376565b60005b828110156200060457848901518255600182019150602085019450602081019050620005dd565b8683101562000624578489015162000620601f89168262000514565b8355505b6001600288020188555050505b505050505050565b6132d280620006496000396000f3fe608060405234801561001057600080fd5b506004361061010b5760003560e01c806385b01b27116100a2578063acf2b4e711610071578063acf2b4e7146102e0578063bb721aab146102fe578063c87b56dd1461031a578063e3a881091461034a578063e985e9c51461037a5761010b565b806385b01b2714610258578063893d20e81461028857806395d89b41146102a6578063a22cb465146102c45761010b565b80631770b1f7116100de5780631770b1f7146101aa5780636352211e146101da5780636e02007d1461020a57806370a08231146102285761010b565b806301ffc9a71461011057806306fdde0314610140578063081812fc1461015e578063095ea7b31461018e575b600080fd5b61012a60048036038101906101259190611a98565b6103aa565b6040516101379190611ae0565b60405180910390f35b61014861048c565b6040516101559190611b8b565b60405180910390f35b61017860048036038101906101739190611be3565b61051e565b6040516101859190611c51565b60405180910390f35b6101a860048036038101906101a39190611c98565b6105a3565b005b6101c460048036038101906101bf9190611cd8565b6106ba565b6040516101d19190611b8b565b60405180910390f35b6101f460048036038101906101ef9190611be3565b61078b565b6040516102019190611c51565b60405180910390f35b61021261083c565b60405161021f9190611d30565b60405180910390f35b610242600480360381019061023d9190611cd8565b610860565b60405161024f9190611d5a565b60405180910390f35b610272600480360381019061026d9190611cd8565b610917565b60405161027f9190611ae0565b60405180910390f35b61029061096d565b60405161029d9190611c51565b60405180910390f35b6102ae610997565b6040516102bb9190611b8b565b60405180910390f35b6102de60048036038101906102d99190611da1565b610a29565b005b6102e8610a3f565b6040516102f59190611b8b565b60405180910390f35b61031860048036038101906103139190611f16565b610ad1565b005b610334600480360381019061032f9190611be3565b610c71565b6040516103419190611b8b565b60405180910390f35b610364600480360381019061035f9190611f72565b610dc2565b6040516103719190611d5a565b60405180910390f35b610394600480360381019061038f9190611fbb565b611026565b6040516103a19190611ae0565b60405180910390f35b60007f591d4bc0000000000000000000000000000000000000000000000000000000007bffffffffffffffffffffffffffffffffffffffffffffffffffffffff1916827bffffffffffffffffffffffffffffffffffffffffffffffffffffffff1916148061047557507f5b5e139f000000000000000000000000000000000000000000000000000000007bffffffffffffffffffffffffffffffffffffffffffffffffffffffff1916827bffffffffffffffffffffffffffffffffffffffffffffffffffffffff1916145b806104855750610484826110ba565b5b9050919050565b60606000805461049b9061202a565b80601f01602080910402602001604051908101604052809291908181526020018280546104c79061202a565b80156105145780601f106104e957610100808354040283529160200191610514565b820191906000526020600020905b8154815290600101906020018083116104f757829003601f168201915b5050505050905090565b600061052982611124565b610568576040517f08c379a000000000000000000000000000000000000000000000000000000000815260040161055f906120cd565b60405180910390fd5b6004600083815260200190815260200160002060009054906101000a900473ffffffffffffffffffffffffffffffffffffffff169050919050565b60006105ae8261078b565b90508073ffffffffffffffffffffffffffffffffffffffff168373ffffffffffffffffffffffffffffffffffffffff160361061e576040517f08c379a00000000000000000000000000000000000000000000000000000000081526004016106159061215f565b60405180910390fd5b8073ffffffffffffffffffffffffffffffffffffffff1661063d611190565b73ffffffffffffffffffffffffffffffffffffffff16148061066c575061066b81610666611190565b611026565b5b6106ab576040517f08c379a00000000000000000000000000000000000000000000000000000000081526004016106a2906121f1565b60405180910390fd5b6106b58383611198565b505050565b6060600b60008373ffffffffffffffffffffffffffffffffffffffff1673ffffffffffffffffffffffffffffffffffffffff16815260200190815260200160002080546107069061202a565b80601f01602080910402602001604051908101604052809291908181526020018280546107329061202a565b801561077f5780601f106107545761010080835404028352916020019161077f565b820191906000526020600020905b81548152906001019060200180831161076257829003601f168201915b50505050509050919050565b6000806002600084815260200190815260200160002060009054906101000a900473ffffffffffffffffffffffffffffffffffffffff169050600073ffffffffffffffffffffffffffffffffffffffff168173ffffffffffffffffffffffffffffffffffffffff1603610833576040517f08c379a000000000000000000000000000000000000000000000000000000000815260040161082a90612283565b60405180910390fd5b80915050919050565b610844611a19565b6007604051806020016040529081600082015481525050905090565b60008073ffffffffffffffffffffffffffffffffffffffff168273ffffffffffffffffffffffffffffffffffffffff16036108d0576040517f08c379a00000000000000000000000000000000000000000000000000000000081526004016108c790612315565b60405180910390fd5b600360008373ffffffffffffffffffffffffffffffffffffffff1673ffffffffffffffffffffffffffffffffffffffff168152602001908152602001600020549050919050565b6000600a60008373ffffffffffffffffffffffffffffffffffffffff1673ffffffffffffffffffffffffffffffffffffffff16815260200190815260200160002060009054906101000a900460ff169050919050565b6000600960009054906101000a900473ffffffffffffffffffffffffffffffffffffffff16905090565b6060600180546109a69061202a565b80601f01602080910402602001604051908101604052809291908181526020018280546109d29061202a565b8015610a1f5780601f106109f457610100808354040283529160200191610a1f565b820191906000526020600020905b815481529060010190602001808311610a0257829003601f168201915b5050505050905090565b610a3b610a34611190565b8383611251565b5050565b606060088054610a4e9061202a565b80601f0160208091040260200160405190810160405280929190818152602001828054610a7a9061202a565b8015610ac75780601f10610a9c57610100808354040283529160200191610ac7565b820191906000526020600020905b815481529060010190602001808311610aaa57829003601f168201915b5050505050905090565b600960009054906101000a900473ffffffffffffffffffffffffffffffffffffffff1673ffffffffffffffffffffffffffffffffffffffff163373ffffffffffffffffffffffffffffffffffffffff1614610b58576040517f7763105900000000000000000000000000000000000000000000000000000000815260040160405180910390fd5b80604051602001610b699190612371565b604051602081830303815290604052805190602001206008604051602001610b919190612420565b6040516020818303038152906040528051906020012014610bde576040517f1d57bda100000000000000000000000000000000000000000000000000000000815260040160405180910390fd5b6001600a60008473ffffffffffffffffffffffffffffffffffffffff1673ffffffffffffffffffffffffffffffffffffffff16815260200190815260200160002060006101000a81548160ff0219169083151502179055507f415ffddd5c0c3058e868a0b47e0a33db469bd6c5193ebcb5a4c1337f36acf52882604051610c659190611c51565b60405180910390a15050565b6060610c7c82611124565b610cbb576040517f08c379a0000000000000000000000000000000000000000000000000000000008152600401610cb2906124a9565b60405180910390fd5b6000600660008481526020019081526020016000208054610cdb9061202a565b80601f0160208091040260200160405190810160405280929190818152602001828054610d079061202a565b8015610d545780601f10610d2957610100808354040283529160200191610d54565b820191906000526020600020905b815481529060010190602001808311610d3757829003601f168201915b505050505090506000610d656113bd565b90506000815103610d7a578192505050610dbd565b600082511115610daf578082604051602001610d979291906124c9565b60405160208183030381529060405292505050610dbd565b610db8846113d4565b925050505b919050565b6000600a60003373ffffffffffffffffffffffffffffffffffffffff1673ffffffffffffffffffffffffffffffffffffffff16815260200190815260200160002060009054906101000a900460ff16610e47576040517f1d57bda100000000000000000000000000000000000000000000000000000000815260040160405180910390fd5b610e51600761147b565b6000610e5d6007611491565b9050610e69338261149f565b6000610e758285611678565b9050610e8182826116df565b6000600a60003373ffffffffffffffffffffffffffffffffffffffff1673ffffffffffffffffffffffffffffffffffffffff16815260200190815260200160002060006101000a81548160ff02191690831515021790555080600b60003373ffffffffffffffffffffffffffffffffffffffff1673ffffffffffffffffffffffffffffffffffffffff1681526020019081526020016000209081610f259190612684565b50610f2e610a3f565b60089081610f3c9190612684565b506000604051806040016040528060088054610f579061202a565b80601f0160208091040260200160405190810160405280929190818152602001828054610f839061202a565b8015610fd05780601f10610fa557610100808354040283529160200191610fd0565b820191906000526020600020905b815481529060010190602001808311610fb357829003601f168201915b505050505081526020018681525090507f84a35990fa096ca3d54ddfec5399d4966212b745aff6302e4bf85dbfcf417237338483604051611013939291906127e4565b60405180910390a1829350505050919050565b6000600560008473ffffffffffffffffffffffffffffffffffffffff1673ffffffffffffffffffffffffffffffffffffffff16815260200190815260200160002060008373ffffffffffffffffffffffffffffffffffffffff1673ffffffffffffffffffffffffffffffffffffffff16815260200190815260200160002060009054906101000a900460ff16905092915050565b60007f01ffc9a7000000000000000000000000000000000000000000000000000000007bffffffffffffffffffffffffffffffffffffffffffffffffffffffff1916827bffffffffffffffffffffffffffffffffffffffffffffffffffffffff1916149050919050565b60008073ffffffffffffffffffffffffffffffffffffffff166002600084815260200190815260200160002060009054906101000a900473ffffffffffffffffffffffffffffffffffffffff1673ffffffffffffffffffffffffffffffffffffffff1614159050919050565b600033905090565b816004600083815260200190815260200160002060006101000a81548173ffffffffffffffffffffffffffffffffffffffff021916908373ffffffffffffffffffffffffffffffffffffffff160217905550808273ffffffffffffffffffffffffffffffffffffffff1661120b8361078b565b73ffffffffffffffffffffffffffffffffffffffff167f8c5be1e5ebec7d5bd14f71427d1e84f3dd0314c0f7b2291e5b200ac8c7c3b92560405160405180910390a45050565b8173ffffffffffffffffffffffffffffffffffffffff168373ffffffffffffffffffffffffffffffffffffffff16036112bf576040517f08c379a00000000000000000000000000000000000000000000000000000000081526004016112b69061286e565b60405180910390fd5b80600560008573ffffffffffffffffffffffffffffffffffffffff1673ffffffffffffffffffffffffffffffffffffffff16815260200190815260200160002060008473ffffffffffffffffffffffffffffffffffffffff1673ffffffffffffffffffffffffffffffffffffffff16815260200190815260200160002060006101000a81548160ff0219169083151502179055508173ffffffffffffffffffffffffffffffffffffffff168373ffffffffffffffffffffffffffffffffffffffff167f17307eab39ab6107e8899845ad3d59bd9653f200f220920489ca2b5937696c31836040516113b09190611ae0565b60405180910390a3505050565b606060405180602001604052806000815250905090565b60606113df82611124565b61141e576040517f08c379a000000000000000000000000000000000000000000000000000000000815260040161141590612900565b60405180910390fd5b60006114286113bd565b905060008151116114485760405180602001604052806000815250611473565b806114528461174c565b6040516020016114639291906124c9565b6040516020818303038152906040525b915050919050565b6001816000016000828254019250508190555050565b600081600001549050919050565b600073ffffffffffffffffffffffffffffffffffffffff168273ffffffffffffffffffffffffffffffffffffffff160361150e576040517f08c379a00000000000000000000000000000000000000000000000000000000081526004016115059061296c565b60405180910390fd5b61151781611124565b15611557576040517f08c379a000000000000000000000000000000000000000000000000000000000815260040161154e906129d8565b60405180910390fd5b611563600083836118ac565b6001600360008473ffffffffffffffffffffffffffffffffffffffff1673ffffffffffffffffffffffffffffffffffffffff16815260200190815260200160002060008282546115b39190612a27565b92505081905550816002600083815260200190815260200160002060006101000a81548173ffffffffffffffffffffffffffffffffffffffff021916908373ffffffffffffffffffffffffffffffffffffffff160217905550808273ffffffffffffffffffffffffffffffffffffffff16600073ffffffffffffffffffffffffffffffffffffffff167fddf252ad1be2c89b69c2b068fc378daa952ba7f163c4a11628f55a4df523b3ef60405160405180910390a4611674600083836118b1565b5050565b6060600060086116878561174c565b60088560405160200161169d9493929190612ecf565b60405160208183030381529060405290506116b7816118b6565b6040516020016116c7919061302a565b60405160208183030381529060405291505092915050565b6116e882611124565b611727576040517f08c379a000000000000000000000000000000000000000000000000000000000815260040161171e906130be565b60405180910390fd5b806006600084815260200190815260200160002090816117479190612684565b505050565b606060008203611793576040518060400160405280600181526020017f300000000000000000000000000000000000000000000000000000000000000081525090506118a7565b600082905060005b600082146117c55780806117ae906130de565b915050600a826117be9190613155565b915061179b565b60008167ffffffffffffffff8111156117e1576117e0611deb565b5b6040519080825280601f01601f1916602001820160405280156118135781602001600182028036833780820191505090505b5090505b600085146118a05760018261182c9190613186565b9150600a8561183b91906131ba565b60306118479190612a27565b60f81b81838151811061185d5761185c6131eb565b5b60200101907effffffffffffffffffffffffffffffffffffffffffffffffffffffffffffff1916908160001a905350600a856118999190613155565b9450611817565b8093505050505b919050565b505050565b505050565b606060008251036118d857604051806020016040528060008152509050611a14565b600060405180606001604052806040815260200161325d60409139905060006003600285516119079190612a27565b6119119190613155565b600461191d919061321a565b67ffffffffffffffff81111561193657611935611deb565b5b6040519080825280601f01601f1916602001820160405280156119685781602001600182028036833780820191505090505b509050600182016020820185865187015b808210156119d4576003820191508151603f8160121c168501518453600184019350603f81600c1c168501518453600184019350603f8160061c168501518453600184019350603f8116850151845360018401935050611979565b50506003865106600181146119f05760028114611a0357611a0b565b603d6001830353603d6002830353611a0b565b603d60018303535b50505080925050505b919050565b6040518060200160405280600081525090565b6000604051905090565b600080fd5b600080fd5b60007fffffffff0000000000000000000000000000000000000000000000000000000082169050919050565b611a7581611a40565b8114611a8057600080fd5b50565b600081359050611a9281611a6c565b92915050565b600060208284031215611aae57611aad611a36565b5b6000611abc84828501611a83565b91505092915050565b60008115159050919050565b611ada81611ac5565b82525050565b6000602082019050611af56000830184611ad1565b92915050565b600081519050919050565b600082825260208201905092915050565b60005b83811015611b35578082015181840152602081019050611b1a565b60008484015250505050565b6000601f19601f8301169050919050565b6000611b5d82611afb565b611b678185611b06565b9350611b77818560208601611b17565b611b8081611b41565b840191505092915050565b60006020820190508181036000830152611ba58184611b52565b905092915050565b6000819050919050565b611bc081611bad565b8114611bcb57600080fd5b50565b600081359050611bdd81611bb7565b92915050565b600060208284031215611bf957611bf8611a36565b5b6000611c0784828501611bce565b91505092915050565b600073ffffffffffffffffffffffffffffffffffffffff82169050919050565b6000611c3b82611c10565b9050919050565b611c4b81611c30565b82525050565b6000602082019050611c666000830184611c42565b92915050565b611c7581611c30565b8114611c8057600080fd5b50565b600081359050611c9281611c6c565b92915050565b60008060408385031215611caf57611cae611a36565b5b6000611cbd85828601611c83565b9250506020611cce85828601611bce565b9150509250929050565b600060208284031215611cee57611ced611a36565b5b6000611cfc84828501611c83565b91505092915050565b611d0e81611bad565b82525050565b602082016000820151611d2a6000850182611d05565b50505050565b6000602082019050611d456000830184611d14565b92915050565b611d5481611bad565b82525050565b6000602082019050611d6f6000830184611d4b565b92915050565b611d7e81611ac5565b8114611d8957600080fd5b50565b600081359050611d9b81611d75565b92915050565b60008060408385031215611db857611db7611a36565b5b6000611dc685828601611c83565b9250506020611dd785828601611d8c565b9150509250929050565b600080fd5b600080fd5b7f4e487b7100000000000000000000000000000000000000000000000000000000600052604160045260246000fd5b611e2382611b41565b810181811067ffffffffffffffff82111715611e4257611e41611deb565b5b80604052505050565b6000611e55611a2c565b9050611e618282611e1a565b919050565b600067ffffffffffffffff821115611e8157611e80611deb565b5b611e8a82611b41565b9050602081019050919050565b82818337600083830152505050565b6000611eb9611eb484611e66565b611e4b565b905082815260208101848484011115611ed557611ed4611de6565b5b611ee0848285611e97565b509392505050565b600082601f830112611efd57611efc611de1565b5b8135611f0d848260208601611ea6565b91505092915050565b60008060408385031215611f2d57611f2c611a36565b5b6000611f3b85828601611c83565b925050602083013567ffffffffffffffff811115611f5c57611f5b611a3b565b5b611f6885828601611ee8565b9150509250929050565b600060208284031215611f8857611f87611a36565b5b600082013567ffffffffffffffff811115611fa657611fa5611a3b565b5b611fb284828501611ee8565b91505092915050565b60008060408385031215611fd257611fd1611a36565b5b6000611fe085828601611c83565b9250506020611ff185828601611c83565b9150509250929050565b7f4e487b7100000000000000000000000000000000000000000000000000000000600052602260045260246000fd5b6000600282049050600182168061204257607f821691505b60208210810361205557612054611ffb565b5b50919050565b7f4552433732313a20617070726f76656420717565727920666f72206e6f6e657860008201527f697374656e7420746f6b656e0000000000000000000000000000000000000000602082015250565b60006120b7602c83611b06565b91506120c28261205b565b604082019050919050565b600060208201905081810360008301526120e6816120aa565b9050919050565b7f4552433732313a20617070726f76616c20746f2063757272656e74206f776e6560008201527f7200000000000000000000000000000000000000000000000000000000000000602082015250565b6000612149602183611b06565b9150612154826120ed565b604082019050919050565b600060208201905081810360008301526121788161213c565b9050919050565b7f4552433732313a20617070726f76652063616c6c6572206973206e6f74206f7760008201527f6e6572206e6f7220617070726f76656420666f7220616c6c0000000000000000602082015250565b60006121db603883611b06565b91506121e68261217f565b604082019050919050565b6000602082019050818103600083015261220a816121ce565b9050919050565b7f4552433732313a206f776e657220717565727920666f72206e6f6e657869737460008201527f656e7420746f6b656e0000000000000000000000000000000000000000000000602082015250565b600061226d602983611b06565b915061227882612211565b604082019050919050565b6000602082019050818103600083015261229c81612260565b9050919050565b7f4552433732313a2062616c616e636520717565727920666f7220746865207a6560008201527f726f206164647265737300000000000000000000000000000000000000000000602082015250565b60006122ff602a83611b06565b915061230a826122a3565b604082019050919050565b6000602082019050818103600083015261232e816122f2565b9050919050565b600081905092915050565b600061234b82611afb565b6123558185612335565b9350612365818560208601611b17565b80840191505092915050565b600061237d8284612340565b915081905092915050565b60008190508160005260206000209050919050565b600081546123aa8161202a565b6123b48186612335565b945060018216600081146123cf57600181146123e457612417565b60ff1983168652811515820286019350612417565b6123ed85612388565b60005b8381101561240f578154818901526001820191506020810190506123f0565b838801955050505b50505092915050565b600061242c828461239d565b915081905092915050565b7f45524337323155524953746f726167653a2055524920717565727920666f722060008201527f6e6f6e6578697374656e7420746f6b656e000000000000000000000000000000602082015250565b6000612493603183611b06565b915061249e82612437565b604082019050919050565b600060208201905081810360008301526124c281612486565b9050919050565b60006124d58285612340565b91506124e18284612340565b91508190509392505050565b60006020601f8301049050919050565b600082821b905092915050565b60006008830261253a7fffffffffffffffffffffffffffffffffffffffffffffffffffffffffffffffff826124fd565b61254486836124fd565b95508019841693508086168417925050509392505050565b6000819050919050565b600061258161257c61257784611bad565b61255c565b611bad565b9050919050565b6000819050919050565b61259b83612566565b6125af6125a782612588565b84845461250a565b825550505050565b600090565b6125c46125b7565b6125cf818484612592565b505050565b5b818110156125f3576125e86000826125bc565b6001810190506125d5565b5050565b601f8211156126385761260981612388565b612612846124ed565b81016020851015612621578190505b61263561262d856124ed565b8301826125d4565b50505b505050565b600082821c905092915050565b600061265b6000198460080261263d565b1980831691505092915050565b6000612674838361264a565b9150826002028217905092915050565b61268d82611afb565b67ffffffffffffffff8111156126a6576126a5611deb565b5b6126b0825461202a565b6126bb8282856125f7565b600060209050601f8311600181146126ee57600084156126dc578287015190505b6126e68582612668565b86555061274e565b601f1984166126fc86612388565b60005b82811015612724578489015182556001820191506020850194506020810190506126ff565b86831015612741578489015161273d601f89168261264a565b8355505b6001600288020188555050505b505050505050565b600082825260208201905092915050565b600061277282611afb565b61277c8185612756565b935061278c818560208601611b17565b61279581611b41565b840191505092915050565b600060408301600083015184820360008601526127bd8282612767565b915050602083015184820360208601526127d78282612767565b9150508091505092915050565b60006060820190506127f96000830186611c42565b6128066020830185611d4b565b818103604083015261281881846127a0565b9050949350505050565b7f4552433732313a20617070726f766520746f2063616c6c657200000000000000600082015250565b6000612858601983611b06565b915061286382612822565b602082019050919050565b600060208201905081810360008301526128878161284b565b9050919050565b7f4552433732314d657461646174613a2055524920717565727920666f72206e6f60008201527f6e6578697374656e7420746f6b656e0000000000000000000000000000000000602082015250565b60006128ea602f83611b06565b91506128f58261288e565b604082019050919050565b60006020820190508181036000830152612919816128dd565b9050919050565b7f4552433732313a206d696e7420746f20746865207a65726f2061646472657373600082015250565b6000612956602083611b06565b915061296182612920565b602082019050919050565b6000602082019050818103600083015261298581612949565b9050919050565b7f4552433732313a20746f6b656e20616c7265616479206d696e74656400000000600082015250565b60006129c2601c83611b06565b91506129cd8261298c565b602082019050919050565b600060208201905081810360008301526129f1816129b5565b9050919050565b7f4e487b7100000000000000000000000000000000000000000000000000000000600052601160045260246000fd5b6000612a3282611bad565b9150612a3d83611bad565b9250828201905080821115612a5557612a546129f8565b5b92915050565b7f7b00000000000000000000000000000000000000000000000000000000000000600082015250565b6000612a91600183612335565b9150612a9c82612a5b565b600182019050919050565b7f226e616d65223a20220000000000000000000000000000000000000000000000600082015250565b6000612add600983612335565b9150612ae882612aa7565b600982019050919050565b7f2043657274696669636174652023000000000000000000000000000000000000600082015250565b6000612b29600e83612335565b9150612b3482612af3565b600e82019050919050565b7f222c000000000000000000000000000000000000000000000000000000000000600082015250565b6000612b75600283612335565b9150612b8082612b3f565b600282019050919050565b7f22696d616765223a202268747470733a2f2f6578616d706c652e636f6d2f696d60008201527f6167652e706e67222c0000000000000000000000000000000000000000000000602082015250565b6000612be7602983612335565b9150612bf282612b8b565b602982019050919050565b7f226465736372697074696f6e223a2022436572746966696361746520666f722060008201527f636f6d706c6574696e672074686520636f75727365222c000000000000000000602082015250565b6000612c59603783612335565b9150612c6482612bfd565b603782019050919050565b7f2261747472696275746573223a205b0000000000000000000000000000000000600082015250565b6000612ca5600f83612335565b9150612cb082612c6f565b600f82019050919050565b7f2274726169742074797065223a2022436f75727365204e616d65222c00000000600082015250565b6000612cf1601c83612335565b9150612cfc82612cbb565b601c82019050919050565b7f2276616c7565223a202200000000000000000000000000000000000000000000600082015250565b6000612d3d600a83612335565b9150612d4882612d07565b600a82019050919050565b7f2200000000000000000000000000000000000000000000000000000000000000600082015250565b6000612d89600183612335565b9150612d9482612d53565b600182019050919050565b7f7d2c000000000000000000000000000000000000000000000000000000000000600082015250565b6000612dd5600283612335565b9150612de082612d9f565b600282019050919050565b7f2274726169742074797065223a20224f434944222c0000000000000000000000600082015250565b6000612e21601583612335565b9150612e2c82612deb565b601582019050919050565b7f7d00000000000000000000000000000000000000000000000000000000000000600082015250565b6000612e6d600183612335565b9150612e7882612e37565b600182019050919050565b7f5d00000000000000000000000000000000000000000000000000000000000000600082015250565b6000612eb9600183612335565b9150612ec482612e83565b600182019050919050565b6000612eda82612a84565b9150612ee582612ad0565b9150612ef1828761239d565b9150612efc82612b1c565b9150612f088286612340565b9150612f1382612b68565b9150612f1e82612bda565b9150612f2982612c4c565b9150612f3482612c98565b9150612f3f82612a84565b9150612f4a82612ce4565b9150612f5582612d30565b9150612f61828561239d565b9150612f6c82612d7c565b9150612f7782612dc8565b9150612f8282612a84565b9150612f8d82612e14565b9150612f9882612d30565b9150612fa48284612340565b9150612faf82612d7c565b9150612fba82612e60565b9150612fc582612eac565b9150612fd082612e60565b915081905095945050505050565b7f646174613a6170706c69636174696f6e2f6a736f6e3b6261736536342c000000600082015250565b6000613014601d83612335565b915061301f82612fde565b601d82019050919050565b600061303582613007565b91506130418284612340565b915081905092915050565b7f45524337323155524953746f726167653a2055524920736574206f66206e6f6e60008201527f6578697374656e7420746f6b656e000000000000000000000000000000000000602082015250565b60006130a8602e83611b06565b91506130b38261304c565b604082019050919050565b600060208201905081810360008301526130d78161309b565b9050919050565b60006130e982611bad565b91507fffffffffffffffffffffffffffffffffffffffffffffffffffffffffffffffff820361311b5761311a6129f8565b5b600182019050919050565b7f4e487b7100000000000000000000000000000000000000000000000000000000600052601260045260246000fd5b600061316082611bad565b915061316b83611bad565b92508261317b5761317a613126565b5b828204905092915050565b600061319182611bad565b915061319c83611bad565b92508282039050818111156131b4576131b36129f8565b5b92915050565b60006131c582611bad565b91506131d083611bad565b9250826131e0576131df613126565b5b828206905092915050565b7f4e487b7100000000000000000000000000000000000000000000000000000000600052603260045260246000fd5b600061322582611bad565b915061323083611bad565b925082820261323e81611bad565b91508282048414831517613255576132546129f8565b5b509291505056fe4142434445464748494a4b4c4d4e4f505152535455565758595a6162636465666768696a6b6c6d6e6f707172737475767778797a303132333435363738392b2fa264697066735822122028331dd44862310d68a0992a1bd4ca95a41124c9a99b73bfdad16068950fe6bd64736f6c63430008180033",
  "linkReferences": {},
  "deployedLinkReferences": {}
}