{
  "_format": "hh-sol-artifact-1",
  "contractName": "CourseCertificate",
  "sourceName": "contracts/Certificate.sol",
  "abi": [
    {
      "inputs": [
        {
          "internalType": "string",
          "name": "courseName",
          "type": "string"
        }
      ],
      "stateMutability": "nonpayable",
      "type": "constructor"
    },
    {
      "inputs": [],
      "name": "CourseCertificate__NotIssued",
      "type": "error"
    },
    {
      "inputs": [],
      "name": "CourseCertificate__NotOwner",
      "type": "error"
    },
    {
      "inputs": [
        {
          "internalType": "address",
          "name": "sender",
          "type": "address"
        },
        {
          "internalType": "uint256",
          "name": "tokenId",
          "type": "uint256"
        },
        {
          "internalType": "address",
          "name": "owner",
          "type": "address"
        }
      ],
      "name": "ERC721IncorrectOwner",
      "type": "error"
    },
    {
      "inputs": [
        {
          "internalType": "address",
          "name": "operator",
          "type": "address"
        },
        {
          "internalType": "uint256",
          "name": "tokenId",
          "type": "uint256"
        }
      ],
      "name": "ERC721InsufficientApproval",
      "type": "error"
    },
    {
      "inputs": [
        {
          "internalType": "address",
          "name": "approver",
          "type": "address"
        }
      ],
      "name": "ERC721InvalidApprover",
      "type": "error"
    },
    {
      "inputs": [
        {
          "internalType": "address",
          "name": "operator",
          "type": "address"
        }
      ],
      "name": "ERC721InvalidOperator",
      "type": "error"
    },
    {
      "inputs": [
        {
          "internalType": "address",
          "name": "owner",
          "type": "address"
        }
      ],
      "name": "ERC721InvalidOwner",
      "type": "error"
    },
    {
      "inputs": [
        {
          "internalType": "address",
          "name": "receiver",
          "type": "address"
        }
      ],
      "name": "ERC721InvalidReceiver",
      "type": "error"
    },
    {
      "inputs": [
        {
          "internalType": "address",
          "name": "sender",
          "type": "address"
        }
      ],
      "name": "ERC721InvalidSender",
      "type": "error"
    },
    {
      "inputs": [
        {
          "internalType": "uint256",
          "name": "tokenId",
          "type": "uint256"
        }
      ],
      "name": "ERC721NonexistentToken",
      "type": "error"
    },
    {
      "anonymous": false,
      "inputs": [
        {
          "indexed": true,
          "internalType": "address",
          "name": "owner",
          "type": "address"
        },
        {
          "indexed": true,
          "internalType": "address",
          "name": "approved",
          "type": "address"
        },
        {
          "indexed": true,
          "internalType": "uint256",
          "name": "tokenId",
          "type": "uint256"
        }
      ],
      "name": "Approval",
      "type": "event"
    },
    {
      "anonymous": false,
      "inputs": [
        {
          "indexed": true,
          "internalType": "address",
          "name": "owner",
          "type": "address"
        },
        {
          "indexed": true,
          "internalType": "address",
          "name": "operator",
          "type": "address"
        },
        {
          "indexed": false,
          "internalType": "bool",
          "name": "approved",
          "type": "bool"
        }
      ],
      "name": "ApprovalForAll",
      "type": "event"
    },
    {
      "anonymous": false,
      "inputs": [
        {
          "indexed": false,
          "internalType": "uint256",
          "name": "_fromTokenId",
          "type": "uint256"
        },
        {
          "indexed": false,
          "internalType": "uint256",
          "name": "_toTokenId",
          "type": "uint256"
        }
      ],
      "name": "BatchMetadataUpdate",
      "type": "event"
    },
    {
      "anonymous": false,
      "inputs": [
        {
          "indexed": false,
          "internalType": "address",
          "name": "student",
          "type": "address"
        }
      ],
      "name": "CertificateIssued",
      "type": "event"
    },
    {
      "anonymous": false,
      "inputs": [
        {
          "indexed": false,
          "internalType": "address",
          "name": "student",
          "type": "address"
        },
        {
          "indexed": false,
          "internalType": "uint256",
          "name": "tokenId",
          "type": "uint256"
        },
        {
          "indexed": false,
          "internalType": "string",
          "name": "tokenURI",
          "type": "string"
        }
      ],
      "name": "CertificateMinted",
      "type": "event"
    },
    {
      "anonymous": false,
      "inputs": [
        {
          "indexed": false,
          "internalType": "uint256",
          "name": "_tokenId",
          "type": "uint256"
        }
      ],
      "name": "MetadataUpdate",
      "type": "event"
    },
    {
      "anonymous": false,
      "inputs": [
        {
          "indexed": true,
          "internalType": "address",
          "name": "from",
          "type": "address"
        },
        {
          "indexed": true,
          "internalType": "address",
          "name": "to",
          "type": "address"
        },
        {
          "indexed": true,
          "internalType": "uint256",
          "name": "tokenId",
          "type": "uint256"
        }
      ],
      "name": "Transfer",
      "type": "event"
    },
    {
      "inputs": [
        {
          "internalType": "address",
          "name": "to",
          "type": "address"
        },
        {
          "internalType": "uint256",
          "name": "tokenId",
          "type": "uint256"
        }
      ],
      "name": "approve",
      "outputs": [],
      "stateMutability": "nonpayable",
      "type": "function"
    },
    {
      "inputs": [
        {
          "internalType": "address",
          "name": "owner",
          "type": "address"
        }
      ],
      "name": "balanceOf",
      "outputs": [
        {
          "internalType": "uint256",
          "name": "",
          "type": "uint256"
        }
      ],
      "stateMutability": "view",
      "type": "function"
    },
    {
      "inputs": [
        {
          "internalType": "address",
          "name": "student",
          "type": "address"
        }
      ],
      "name": "checkCertificateOfStudent",
      "outputs": [
        {
          "internalType": "string",
          "name": "",
          "type": "string"
        }
      ],
      "stateMutability": "view",
      "type": "function"
    },
    {
      "inputs": [
        {
          "internalType": "uint256",
          "name": "tokenId",
          "type": "uint256"
        }
      ],
      "name": "getApproved",
      "outputs": [
        {
          "internalType": "address",
          "name": "",
          "type": "address"
        }
      ],
      "stateMutability": "view",
      "type": "function"
    },
    {
      "inputs": [],
      "name": "getCourseName",
      "outputs": [
        {
          "internalType": "string",
          "name": "",
          "type": "string"
        }
      ],
      "stateMutability": "view",
      "type": "function"
    },
    {
      "inputs": [],
      "name": "getOwner",
      "outputs": [
        {
          "internalType": "address",
          "name": "",
          "type": "address"
        }
      ],
      "stateMutability": "view",
      "type": "function"
    },
    {
      "inputs": [],
      "name": "getTokenCounter",
      "outputs": [
        {
          "internalType": "uint256",
          "name": "",
          "type": "uint256"
        }
      ],
      "stateMutability": "view",
      "type": "function"
    },
    {
      "inputs": [
        {
          "internalType": "address",
          "name": "owner",
          "type": "address"
        },
        {
          "internalType": "address",
          "name": "operator",
          "type": "address"
        }
      ],
      "name": "isApprovedForAll",
      "outputs": [
        {
          "internalType": "bool",
          "name": "",
          "type": "bool"
        }
      ],
      "stateMutability": "view",
      "type": "function"
    },
    {
      "inputs": [
        {
          "internalType": "address",
          "name": "student",
          "type": "address"
        }
      ],
      "name": "isStudentCertificateIssued",
      "outputs": [
        {
          "internalType": "bool",
          "name": "",
          "type": "bool"
        }
      ],
      "stateMutability": "view",
      "type": "function"
    },
    {
      "inputs": [
        {
          "internalType": "address",
          "name": "student",
          "type": "address"
        },
        {
          "internalType": "string",
          "name": "courseName",
          "type": "string"
        }
      ],
      "name": "issueCertificate",
      "outputs": [],
      "stateMutability": "nonpayable",
      "type": "function"
    },
    {
      "inputs": [
        {
          "internalType": "string",
          "name": "ocid",
          "type": "string"
        }
      ],
      "name": "mintCertificate",
      "outputs": [
        {
          "internalType": "uint256",
          "name": "",
          "type": "uint256"
        }
      ],
      "stateMutability": "nonpayable",
      "type": "function"
    },
    {
      "inputs": [],
      "name": "name",
      "outputs": [
        {
          "internalType": "string",
          "name": "",
          "type": "string"
        }
      ],
      "stateMutability": "view",
      "type": "function"
    },
    {
      "inputs": [
        {
          "internalType": "uint256",
          "name": "tokenId",
          "type": "uint256"
        }
      ],
      "name": "ownerOf",
      "outputs": [
        {
          "internalType": "address",
          "name": "",
          "type": "address"
        }
      ],
      "stateMutability": "view",
      "type": "function"
    },
    {
      "inputs": [
        {
          "internalType": "address",
          "name": "from",
          "type": "address"
        },
        {
          "internalType": "address",
          "name": "to",
          "type": "address"
        },
        {
          "internalType": "uint256",
          "name": "tokenId",
          "type": "uint256"
        }
      ],
      "name": "safeTransferFrom",
      "outputs": [],
      "stateMutability": "nonpayable",
      "type": "function"
    },
    {
      "inputs": [
        {
          "internalType": "address",
          "name": "from",
          "type": "address"
        },
        {
          "internalType": "address",
          "name": "to",
          "type": "address"
        },
        {
          "internalType": "uint256",
          "name": "tokenId",
          "type": "uint256"
        },
        {
          "internalType": "bytes",
          "name": "data",
          "type": "bytes"
        }
      ],
      "name": "safeTransferFrom",
      "outputs": [],
      "stateMutability": "nonpayable",
      "type": "function"
    },
    {
      "inputs": [
        {
          "internalType": "address",
          "name": "operator",
          "type": "address"
        },
        {
          "internalType": "bool",
          "name": "approved",
          "type": "bool"
        }
      ],
      "name": "setApprovalForAll",
      "outputs": [],
      "stateMutability": "nonpayable",
      "type": "function"
    },
    {
      "inputs": [
        {
          "internalType": "bytes4",
          "name": "interfaceId",
          "type": "bytes4"
        }
      ],
      "name": "supportsInterface",
      "outputs": [
        {
          "internalType": "bool",
          "name": "",
          "type": "bool"
        }
      ],
      "stateMutability": "view",
      "type": "function"
    },
    {
      "inputs": [],
      "name": "symbol",
      "outputs": [
        {
          "internalType": "string",
          "name": "",
          "type": "string"
        }
      ],
      "stateMutability": "view",
      "type": "function"
    },
    {
      "inputs": [
        {
          "internalType": "uint256",
          "name": "tokenId",
          "type": "uint256"
        }
      ],
      "name": "tokenURI",
      "outputs": [
        {
          "internalType": "string",
          "name": "",
          "type": "string"
        }
      ],
      "stateMutability": "view",
      "type": "function"
    },
    {
      "inputs": [
        {
          "internalType": "address",
          "name": "from",
          "type": "address"
        },
        {
          "internalType": "address",
          "name": "to",
          "type": "address"
        },
        {
          "internalType": "uint256",
          "name": "tokenId",
          "type": "uint256"
        }
      ],
      "name": "transferFrom",
      "outputs": [],
      "stateMutability": "nonpayable",
      "type": "function"
    }
  ],
  "bytecode": "0x60806040523480156200001157600080fd5b50604051620039e2380380620039e28339818101604052810190620000379190620002be565b6040518060400160405280601f81526020017f436f757273654365727469666963617465536f756c426f756e64546f6b656e008152506040518060400160405280600581526020017f43435342540000000000000000000000000000000000000000000000000000008152508160009081620000b491906200055a565b508060019081620000c691906200055a565b5050508060079081620000da91906200055a565b5033600860006101000a81548173ffffffffffffffffffffffffffffffffffffffff021916908373ffffffffffffffffffffffffffffffffffffffff1602179055506000600b819055505062000641565b6000604051905090565b600080fd5b600080fd5b600080fd5b600080fd5b6000601f19601f8301169050919050565b7f4e487b7100000000000000000000000000000000000000000000000000000000600052604160045260246000fd5b620001948262000149565b810181811067ffffffffffffffff82111715620001b657620001b56200015a565b5b80604052505050565b6000620001cb6200012b565b9050620001d9828262000189565b919050565b600067ffffffffffffffff821115620001fc57620001fb6200015a565b5b620002078262000149565b9050602081019050919050565b60005b838110156200023457808201518184015260208101905062000217565b60008484015250505050565b6000620002576200025184620001de565b620001bf565b90508281526020810184848401111562000276576200027562000144565b5b6200028384828562000214565b509392505050565b600082601f830112620002a357620002a26200013f565b5b8151620002b584826020860162000240565b91505092915050565b600060208284031215620002d757620002d662000135565b5b600082015167ffffffffffffffff811115620002f857620002f76200013a565b5b62000306848285016200028b565b91505092915050565b600081519050919050565b7f4e487b7100000000000000000000000000000000000000000000000000000000600052602260045260246000fd5b600060028204905060018216806200036257607f821691505b6020821081036200037857620003776200031a565b5b50919050565b60008190508160005260206000209050919050565b60006020601f8301049050919050565b600082821b905092915050565b600060088302620003e27fffffffffffffffffffffffffffffffffffffffffffffffffffffffffffffffff82620003a3565b620003ee8683620003a3565b95508019841693508086168417925050509392505050565b6000819050919050565b6000819050919050565b60006200043b620004356200042f8462000406565b62000410565b62000406565b9050919050565b6000819050919050565b62000457836200041a565b6200046f620004668262000442565b848454620003b0565b825550505050565b600090565b6200048662000477565b620004938184846200044c565b505050565b5b81811015620004bb57620004af6000826200047c565b60018101905062000499565b5050565b601f8211156200050a57620004d4816200037e565b620004df8462000393565b81016020851015620004ef578190505b62000507620004fe8562000393565b83018262000498565b50505b505050565b600082821c905092915050565b60006200052f600019846008026200050f565b1980831691505092915050565b60006200054a83836200051c565b9150826002028217905092915050565b62000565826200030f565b67ffffffffffffffff8111156200058157620005806200015a565b5b6200058d825462000349565b6200059a828285620004bf565b600060209050601f831160018114620005d25760008415620005bd578287015190505b620005c985826200053c565b86555062000639565b601f198416620005e2866200037e565b60005b828110156200060c57848901518255600182019150602085019450602081019050620005e5565b868310156200062c578489015162000628601f8916826200051c565b8355505b6001600288020188555050505b505050505050565b61339180620006516000396000f3fe608060405234801561001057600080fd5b506004361061012c5760003560e01c806385b01b27116100ad578063b88d4fde11610071578063b88d4fde14610357578063bb721aab14610373578063c87b56dd1461038f578063e3a88109146103bf578063e985e9c5146103ef5761012c565b806385b01b27146102b1578063893d20e8146102e157806395d89b41146102ff578063a22cb4651461031d578063acf2b4e7146103395761012c565b806323b872dd116100f457806323b872dd146101fb57806342842e0e146102175780636352211e146102335780636e02007d1461026357806370a08231146102815761012c565b806301ffc9a71461013157806306fdde0314610161578063081812fc1461017f578063095ea7b3146101af5780631770b1f7146101cb575b600080fd5b61014b60048036038101906101469190612021565b61041f565b6040516101589190612069565b60405180910390f35b610169610480565b6040516101769190612114565b60405180910390f35b6101996004803603810190610194919061216c565b610512565b6040516101a691906121da565b60405180910390f35b6101c960048036038101906101c49190612221565b61052e565b005b6101e560048036038101906101e09190612261565b610544565b6040516101f29190612114565b60405180910390f35b6102156004803603810190610210919061228e565b610615565b005b610231600480360381019061022c919061228e565b610717565b005b61024d6004803603810190610248919061216c565b610737565b60405161025a91906121da565b60405180910390f35b61026b610749565b60405161027891906122f0565b60405180910390f35b61029b60048036038101906102969190612261565b610753565b6040516102a891906122f0565b60405180910390f35b6102cb60048036038101906102c69190612261565b61080d565b6040516102d89190612069565b60405180910390f35b6102e9610863565b6040516102f691906121da565b60405180910390f35b61030761088d565b6040516103149190612114565b60405180910390f35b61033760048036038101906103329190612337565b61091f565b005b610341610935565b60405161034e9190612114565b60405180910390f35b610371600480360381019061036c91906124ac565b6109c7565b005b61038d600480360381019061038891906125d0565b6109e4565b005b6103a960048036038101906103a4919061216c565b610b84565b6040516103b69190612114565b60405180910390f35b6103d960048036038101906103d4919061262c565b610c97565b6040516103e691906122f0565b60405180910390f35b61040960048036038101906104049190612675565b610e60565b6040516104169190612069565b60405180910390f35b6000634906490660e01b7bffffffffffffffffffffffffffffffffffffffffffffffffffffffff1916827bffffffffffffffffffffffffffffffffffffffffffffffffffffffff19161480610479575061047882610ef4565b5b9050919050565b60606000805461048f906126e4565b80601f01602080910402602001604051908101604052809291908181526020018280546104bb906126e4565b80156105085780601f106104dd57610100808354040283529160200191610508565b820191906000526020600020905b8154815290600101906020018083116104eb57829003601f168201915b5050505050905090565b600061051d82610fd6565b506105278261105e565b9050919050565b610540828261053b61109b565b6110a3565b5050565b6060600a60008373ffffffffffffffffffffffffffffffffffffffff1673ffffffffffffffffffffffffffffffffffffffff1681526020019081526020016000208054610590906126e4565b80601f01602080910402602001604051908101604052809291908181526020018280546105bc906126e4565b80156106095780601f106105de57610100808354040283529160200191610609565b820191906000526020600020905b8154815290600101906020018083116105ec57829003601f168201915b50505050509050919050565b600073ffffffffffffffffffffffffffffffffffffffff168273ffffffffffffffffffffffffffffffffffffffff16036106875760006040517f64a0ae9200000000000000000000000000000000000000000000000000000000815260040161067e91906121da565b60405180910390fd5b600061069b838361069661109b565b6110b5565b90508373ffffffffffffffffffffffffffffffffffffffff168173ffffffffffffffffffffffffffffffffffffffff1614610711578382826040517f64283d7b00000000000000000000000000000000000000000000000000000000815260040161070893929190612715565b60405180910390fd5b50505050565b610732838383604051806020016040528060008152506109c7565b505050565b600061074282610fd6565b9050919050565b6000600b54905090565b60008073ffffffffffffffffffffffffffffffffffffffff168273ffffffffffffffffffffffffffffffffffffffff16036107c65760006040517f89c62b640000000000000000000000000000000000000000000000000000000081526004016107bd91906121da565b60405180910390fd5b600360008373ffffffffffffffffffffffffffffffffffffffff1673ffffffffffffffffffffffffffffffffffffffff168152602001908152602001600020549050919050565b6000600960008373ffffffffffffffffffffffffffffffffffffffff1673ffffffffffffffffffffffffffffffffffffffff16815260200190815260200160002060009054906101000a900460ff169050919050565b6000600860009054906101000a900473ffffffffffffffffffffffffffffffffffffffff16905090565b60606001805461089c906126e4565b80601f01602080910402602001604051908101604052809291908181526020018280546108c8906126e4565b80156109155780601f106108ea57610100808354040283529160200191610915565b820191906000526020600020905b8154815290600101906020018083116108f857829003601f168201915b5050505050905090565b61093161092a61109b565b83836112cf565b5050565b606060078054610944906126e4565b80601f0160208091040260200160405190810160405280929190818152602001828054610970906126e4565b80156109bd5780601f10610992576101008083540402835291602001916109bd565b820191906000526020600020905b8154815290600101906020018083116109a057829003601f168201915b5050505050905090565b6109d2848484610615565b6109de8484848461143e565b50505050565b600860009054906101000a900473ffffffffffffffffffffffffffffffffffffffff1673ffffffffffffffffffffffffffffffffffffffff163373ffffffffffffffffffffffffffffffffffffffff1614610a6b576040517f7763105900000000000000000000000000000000000000000000000000000000815260040160405180910390fd5b80604051602001610a7c9190612788565b604051602081830303815290604052805190602001206007604051602001610aa49190612837565b6040516020818303038152906040528051906020012014610af1576040517f1d57bda100000000000000000000000000000000000000000000000000000000815260040160405180910390fd5b6001600960008473ffffffffffffffffffffffffffffffffffffffff1673ffffffffffffffffffffffffffffffffffffffff16815260200190815260200160002060006101000a81548160ff0219169083151502179055507f415ffddd5c0c3058e868a0b47e0a33db469bd6c5193ebcb5a4c1337f36acf52882604051610b7891906121da565b60405180910390a15050565b6060610b8f82610fd6565b506000600660008481526020019081526020016000208054610bb0906126e4565b80601f0160208091040260200160405190810160405280929190818152602001828054610bdc906126e4565b8015610c295780601f10610bfe57610100808354040283529160200191610c29565b820191906000526020600020905b815481529060010190602001808311610c0c57829003601f168201915b505050505090506000610c3a6115f5565b90506000815103610c4f578192505050610c92565b600082511115610c84578082604051602001610c6c92919061284e565b60405160208183030381529060405292505050610c92565b610c8d8461160c565b925050505b919050565b6000600960003373ffffffffffffffffffffffffffffffffffffffff1673ffffffffffffffffffffffffffffffffffffffff16815260200190815260200160002060009054906101000a900460ff16610d1c576040517f1d57bda100000000000000000000000000000000000000000000000000000000815260040160405180910390fd5b6001600b6000828254610d2f91906128a1565b925050819055506000600b549050610d473382611675565b6000610d53828561176e565b9050610d5f82826117d5565b6000600960003373ffffffffffffffffffffffffffffffffffffffff1673ffffffffffffffffffffffffffffffffffffffff16815260200190815260200160002060006101000a81548160ff02191690831515021790555080600a60003373ffffffffffffffffffffffffffffffffffffffff1673ffffffffffffffffffffffffffffffffffffffff1681526020019081526020016000209081610e039190612a6c565b50610e0c610935565b60079081610e1a9190612a6c565b507fde5d6fd45e32fffb472bcbaeedf6a2e3944633c9701eec7d99adfa07ad6104c1338383604051610e4e93929190612b3e565b60405180910390a18192505050919050565b6000600560008473ffffffffffffffffffffffffffffffffffffffff1673ffffffffffffffffffffffffffffffffffffffff16815260200190815260200160002060008373ffffffffffffffffffffffffffffffffffffffff1673ffffffffffffffffffffffffffffffffffffffff16815260200190815260200160002060009054906101000a900460ff16905092915050565b60007f80ac58cd000000000000000000000000000000000000000000000000000000007bffffffffffffffffffffffffffffffffffffffffffffffffffffffff1916827bffffffffffffffffffffffffffffffffffffffffffffffffffffffff19161480610fbf57507f5b5e139f000000000000000000000000000000000000000000000000000000007bffffffffffffffffffffffffffffffffffffffffffffffffffffffff1916827bffffffffffffffffffffffffffffffffffffffffffffffffffffffff1916145b80610fcf5750610fce82611831565b5b9050919050565b600080610fe28361189b565b9050600073ffffffffffffffffffffffffffffffffffffffff168173ffffffffffffffffffffffffffffffffffffffff160361105557826040517f7e27328900000000000000000000000000000000000000000000000000000000815260040161104c91906122f0565b60405180910390fd5b80915050919050565b60006004600083815260200190815260200160002060009054906101000a900473ffffffffffffffffffffffffffffffffffffffff169050919050565b600033905090565b6110b083838360016118d8565b505050565b6000806110c18461189b565b9050600073ffffffffffffffffffffffffffffffffffffffff168373ffffffffffffffffffffffffffffffffffffffff161461110357611102818486611a9d565b5b600073ffffffffffffffffffffffffffffffffffffffff168173ffffffffffffffffffffffffffffffffffffffff1614611194576111456000856000806118d8565b6001600360008373ffffffffffffffffffffffffffffffffffffffff1673ffffffffffffffffffffffffffffffffffffffff168152602001908152602001600020600082825403925050819055505b600073ffffffffffffffffffffffffffffffffffffffff168573ffffffffffffffffffffffffffffffffffffffff1614611217576001600360008773ffffffffffffffffffffffffffffffffffffffff1673ffffffffffffffffffffffffffffffffffffffff168152602001908152602001600020600082825401925050819055505b846002600086815260200190815260200160002060006101000a81548173ffffffffffffffffffffffffffffffffffffffff021916908373ffffffffffffffffffffffffffffffffffffffff160217905550838573ffffffffffffffffffffffffffffffffffffffff168273ffffffffffffffffffffffffffffffffffffffff167fddf252ad1be2c89b69c2b068fc378daa952ba7f163c4a11628f55a4df523b3ef60405160405180910390a4809150509392505050565b600073ffffffffffffffffffffffffffffffffffffffff168273ffffffffffffffffffffffffffffffffffffffff160361134057816040517f5b08ba1800000000000000000000000000000000000000000000000000000000815260040161133791906121da565b60405180910390fd5b80600560008573ffffffffffffffffffffffffffffffffffffffff1673ffffffffffffffffffffffffffffffffffffffff16815260200190815260200160002060008473ffffffffffffffffffffffffffffffffffffffff1673ffffffffffffffffffffffffffffffffffffffff16815260200190815260200160002060006101000a81548160ff0219169083151502179055508173ffffffffffffffffffffffffffffffffffffffff168373ffffffffffffffffffffffffffffffffffffffff167f17307eab39ab6107e8899845ad3d59bd9653f200f220920489ca2b5937696c31836040516114319190612069565b60405180910390a3505050565b60008373ffffffffffffffffffffffffffffffffffffffff163b11156115ef578273ffffffffffffffffffffffffffffffffffffffff1663150b7a0261148261109b565b8685856040518563ffffffff1660e01b81526004016114a49493929190612bd1565b6020604051808303816000875af19250505080156114e057506040513d601f19601f820116820180604052508101906114dd9190612c32565b60015b611564573d8060008114611510576040519150601f19603f3d011682016040523d82523d6000602084013e611515565b606091505b50600081510361155c57836040517f64a0ae9200000000000000000000000000000000000000000000000000000000815260040161155391906121da565b60405180910390fd5b805181602001fd5b63150b7a0260e01b7bffffffffffffffffffffffffffffffffffffffffffffffffffffffff1916817bffffffffffffffffffffffffffffffffffffffffffffffffffffffff1916146115ed57836040517f64a0ae920000000000000000000000000000000000000000000000000000000081526004016115e491906121da565b60405180910390fd5b505b50505050565b606060405180602001604052806000815250905090565b606061161782610fd6565b5060006116226115f5565b90506000815111611642576040518060200160405280600081525061166d565b8061164c84611b61565b60405160200161165d92919061284e565b6040516020818303038152906040525b915050919050565b600073ffffffffffffffffffffffffffffffffffffffff168273ffffffffffffffffffffffffffffffffffffffff16036116e75760006040517f64a0ae920000000000000000000000000000000000000000000000000000000081526004016116de91906121da565b60405180910390fd5b60006116f5838360006110b5565b9050600073ffffffffffffffffffffffffffffffffffffffff168173ffffffffffffffffffffffffffffffffffffffff16146117695760006040517f73c6ac6e00000000000000000000000000000000000000000000000000000000815260040161176091906121da565b60405180910390fd5b505050565b60606000600761177d85611b61565b60078560405160200161179394939291906130d3565b60405160208183030381529060405290506117ad81611c2f565b6040516020016117bd919061322e565b60405160208183030381529060405291505092915050565b806006600084815260200190815260200160002090816117f59190612a6c565b507ff8e1a15aba9398e019f0b49df1a4fde98ee17ae345cb5f6b5e2c27f5033e8ce78260405161182591906122f0565b60405180910390a15050565b60007f01ffc9a7000000000000000000000000000000000000000000000000000000007bffffffffffffffffffffffffffffffffffffffffffffffffffffffff1916827bffffffffffffffffffffffffffffffffffffffffffffffffffffffff1916149050919050565b60006002600083815260200190815260200160002060009054906101000a900473ffffffffffffffffffffffffffffffffffffffff169050919050565b80806119115750600073ffffffffffffffffffffffffffffffffffffffff168273ffffffffffffffffffffffffffffffffffffffff1614155b15611a4557600061192184610fd6565b9050600073ffffffffffffffffffffffffffffffffffffffff168373ffffffffffffffffffffffffffffffffffffffff161415801561198c57508273ffffffffffffffffffffffffffffffffffffffff168173ffffffffffffffffffffffffffffffffffffffff1614155b801561199f575061199d8184610e60565b155b156119e157826040517fa9fbf51f0000000000000000000000000000000000000000000000000000000081526004016119d891906121da565b60405180910390fd5b8115611a4357838573ffffffffffffffffffffffffffffffffffffffff168273ffffffffffffffffffffffffffffffffffffffff167f8c5be1e5ebec7d5bd14f71427d1e84f3dd0314c0f7b2291e5b200ac8c7c3b92560405160405180910390a45b505b836004600085815260200190815260200160002060006101000a81548173ffffffffffffffffffffffffffffffffffffffff021916908373ffffffffffffffffffffffffffffffffffffffff16021790555050505050565b611aa8838383611da1565b611b5c57600073ffffffffffffffffffffffffffffffffffffffff168373ffffffffffffffffffffffffffffffffffffffff1603611b1d57806040517f7e273289000000000000000000000000000000000000000000000000000000008152600401611b1491906122f0565b60405180910390fd5b81816040517f177e802f000000000000000000000000000000000000000000000000000000008152600401611b53929190613250565b60405180910390fd5b505050565b606060006001611b7084611e62565b01905060008167ffffffffffffffff811115611b8f57611b8e612381565b5b6040519080825280601f01601f191660200182016040528015611bc15781602001600182028036833780820191505090505b509050600082602001820190505b600115611c24578080600190039150507f3031323334353637383961626364656600000000000000000000000000000000600a86061a8153600a8581611c1857611c17613279565b5b04945060008503611bcf575b819350505050919050565b60606000825103611c5157604051806020016040528060008152509050611d9c565b600060405180606001604052806040815260200161331c6040913990506000600360028551611c8091906128a1565b611c8a91906132a8565b6004611c9691906132d9565b67ffffffffffffffff811115611caf57611cae612381565b5b6040519080825280601f01601f191660200182016040528015611ce15781602001600182028036833780820191505090505b50905060018201602082018586518701602081018051600082525b82841015611d57576003840193508351603f8160121c168701518653600186019550603f81600c1c168701518653600186019550603f8160061c168701518653600186019550603f8116870151865360018601955050611cfc565b80825260038a510660018114611d745760028114611d8757611d8f565b603d6001870353603d6002870353611d8f565b603d60018703535b5050505050505080925050505b919050565b60008073ffffffffffffffffffffffffffffffffffffffff168373ffffffffffffffffffffffffffffffffffffffff1614158015611e5957508273ffffffffffffffffffffffffffffffffffffffff168473ffffffffffffffffffffffffffffffffffffffff161480611e1a5750611e198484610e60565b5b80611e5857508273ffffffffffffffffffffffffffffffffffffffff16611e408361105e565b73ffffffffffffffffffffffffffffffffffffffff16145b5b90509392505050565b600080600090507a184f03e93ff9f4daa797ed6e38ed64bf6a1f0100000000000000008310611ec0577a184f03e93ff9f4daa797ed6e38ed64bf6a1f0100000000000000008381611eb657611eb5613279565b5b0492506040810190505b6d04ee2d6d415b85acef81000000008310611efd576d04ee2d6d415b85acef81000000008381611ef357611ef2613279565b5b0492506020810190505b662386f26fc100008310611f2c57662386f26fc100008381611f2257611f21613279565b5b0492506010810190505b6305f5e1008310611f55576305f5e1008381611f4b57611f4a613279565b5b0492506008810190505b6127108310611f7a576127108381611f7057611f6f613279565b5b0492506004810190505b60648310611f9d5760648381611f9357611f92613279565b5b0492506002810190505b600a8310611fac576001810190505b80915050919050565b6000604051905090565b600080fd5b600080fd5b60007fffffffff0000000000000000000000000000000000000000000000000000000082169050919050565b611ffe81611fc9565b811461200957600080fd5b50565b60008135905061201b81611ff5565b92915050565b60006020828403121561203757612036611fbf565b5b60006120458482850161200c565b91505092915050565b60008115159050919050565b6120638161204e565b82525050565b600060208201905061207e600083018461205a565b92915050565b600081519050919050565b600082825260208201905092915050565b60005b838110156120be5780820151818401526020810190506120a3565b60008484015250505050565b6000601f19601f8301169050919050565b60006120e682612084565b6120f0818561208f565b93506121008185602086016120a0565b612109816120ca565b840191505092915050565b6000602082019050818103600083015261212e81846120db565b905092915050565b6000819050919050565b61214981612136565b811461215457600080fd5b50565b60008135905061216681612140565b92915050565b60006020828403121561218257612181611fbf565b5b600061219084828501612157565b91505092915050565b600073ffffffffffffffffffffffffffffffffffffffff82169050919050565b60006121c482612199565b9050919050565b6121d4816121b9565b82525050565b60006020820190506121ef60008301846121cb565b92915050565b6121fe816121b9565b811461220957600080fd5b50565b60008135905061221b816121f5565b92915050565b6000806040838503121561223857612237611fbf565b5b60006122468582860161220c565b925050602061225785828601612157565b9150509250929050565b60006020828403121561227757612276611fbf565b5b60006122858482850161220c565b91505092915050565b6000806000606084860312156122a7576122a6611fbf565b5b60006122b58682870161220c565b93505060206122c68682870161220c565b92505060406122d786828701612157565b9150509250925092565b6122ea81612136565b82525050565b600060208201905061230560008301846122e1565b92915050565b6123148161204e565b811461231f57600080fd5b50565b6000813590506123318161230b565b92915050565b6000806040838503121561234e5761234d611fbf565b5b600061235c8582860161220c565b925050602061236d85828601612322565b9150509250929050565b600080fd5b600080fd5b7f4e487b7100000000000000000000000000000000000000000000000000000000600052604160045260246000fd5b6123b9826120ca565b810181811067ffffffffffffffff821117156123d8576123d7612381565b5b80604052505050565b60006123eb611fb5565b90506123f782826123b0565b919050565b600067ffffffffffffffff82111561241757612416612381565b5b612420826120ca565b9050602081019050919050565b82818337600083830152505050565b600061244f61244a846123fc565b6123e1565b90508281526020810184848401111561246b5761246a61237c565b5b61247684828561242d565b509392505050565b600082601f83011261249357612492612377565b5b81356124a384826020860161243c565b91505092915050565b600080600080608085870312156124c6576124c5611fbf565b5b60006124d48782880161220c565b94505060206124e58782880161220c565b93505060406124f687828801612157565b925050606085013567ffffffffffffffff81111561251757612516611fc4565b5b6125238782880161247e565b91505092959194509250565b600067ffffffffffffffff82111561254a57612549612381565b5b612553826120ca565b9050602081019050919050565b600061257361256e8461252f565b6123e1565b90508281526020810184848401111561258f5761258e61237c565b5b61259a84828561242d565b509392505050565b600082601f8301126125b7576125b6612377565b5b81356125c7848260208601612560565b91505092915050565b600080604083850312156125e7576125e6611fbf565b5b60006125f58582860161220c565b925050602083013567ffffffffffffffff81111561261657612615611fc4565b5b612622858286016125a2565b9150509250929050565b60006020828403121561264257612641611fbf565b5b600082013567ffffffffffffffff8111156126605761265f611fc4565b5b61266c848285016125a2565b91505092915050565b6000806040838503121561268c5761268b611fbf565b5b600061269a8582860161220c565b92505060206126ab8582860161220c565b9150509250929050565b7f4e487b7100000000000000000000000000000000000000000000000000000000600052602260045260246000fd5b600060028204905060018216806126fc57607f821691505b60208210810361270f5761270e6126b5565b5b50919050565b600060608201905061272a60008301866121cb565b61273760208301856122e1565b61274460408301846121cb565b949350505050565b600081905092915050565b600061276282612084565b61276c818561274c565b935061277c8185602086016120a0565b80840191505092915050565b60006127948284612757565b915081905092915050565b60008190508160005260206000209050919050565b600081546127c1816126e4565b6127cb818661274c565b945060018216600081146127e657600181146127fb5761282e565b60ff198316865281151582028601935061282e565b6128048561279f565b60005b8381101561282657815481890152600182019150602081019050612807565b838801955050505b50505092915050565b600061284382846127b4565b915081905092915050565b600061285a8285612757565b91506128668284612757565b91508190509392505050565b7f4e487b7100000000000000000000000000000000000000000000000000000000600052601160045260246000fd5b60006128ac82612136565b91506128b783612136565b92508282019050808211156128cf576128ce612872565b5b92915050565b60006020601f8301049050919050565b600082821b905092915050565b6000600883026129227fffffffffffffffffffffffffffffffffffffffffffffffffffffffffffffffff826128e5565b61292c86836128e5565b95508019841693508086168417925050509392505050565b6000819050919050565b600061296961296461295f84612136565b612944565b612136565b9050919050565b6000819050919050565b6129838361294e565b61299761298f82612970565b8484546128f2565b825550505050565b600090565b6129ac61299f565b6129b781848461297a565b505050565b5b818110156129db576129d06000826129a4565b6001810190506129bd565b5050565b601f821115612a20576129f18161279f565b6129fa846128d5565b81016020851015612a09578190505b612a1d612a15856128d5565b8301826129bc565b50505b505050565b600082821c905092915050565b6000612a4360001984600802612a25565b1980831691505092915050565b6000612a5c8383612a32565b9150826002028217905092915050565b612a7582612084565b67ffffffffffffffff811115612a8e57612a8d612381565b5b612a9882546126e4565b612aa38282856129df565b600060209050601f831160018114612ad65760008415612ac4578287015190505b612ace8582612a50565b865550612b36565b601f198416612ae48661279f565b60005b82811015612b0c57848901518255600182019150602085019450602081019050612ae7565b86831015612b295784890151612b25601f891682612a32565b8355505b6001600288020188555050505b505050505050565b6000606082019050612b5360008301866121cb565b612b6060208301856122e1565b8181036040830152612b7281846120db565b9050949350505050565b600081519050919050565b600082825260208201905092915050565b6000612ba382612b7c565b612bad8185612b87565b9350612bbd8185602086016120a0565b612bc6816120ca565b840191505092915050565b6000608082019050612be660008301876121cb565b612bf360208301866121cb565b612c0060408301856122e1565b8181036060830152612c128184612b98565b905095945050505050565b600081519050612c2c81611ff5565b92915050565b600060208284031215612c4857612c47611fbf565b5b6000612c5684828501612c1d565b91505092915050565b7f7b00000000000000000000000000000000000000000000000000000000000000600082015250565b6000612c9560018361274c565b9150612ca082612c5f565b600182019050919050565b7f226e616d65223a20220000000000000000000000000000000000000000000000600082015250565b6000612ce160098361274c565b9150612cec82612cab565b600982019050919050565b7f2043657274696669636174652023000000000000000000000000000000000000600082015250565b6000612d2d600e8361274c565b9150612d3882612cf7565b600e82019050919050565b7f222c000000000000000000000000000000000000000000000000000000000000600082015250565b6000612d7960028361274c565b9150612d8482612d43565b600282019050919050565b7f22696d616765223a202268747470733a2f2f6578616d706c652e636f6d2f696d60008201527f6167652e706e67222c0000000000000000000000000000000000000000000000602082015250565b6000612deb60298361274c565b9150612df682612d8f565b602982019050919050565b7f226465736372697074696f6e223a2022436572746966696361746520666f722060008201527f636f6d706c6574696e672074686520636f75727365222c000000000000000000602082015250565b6000612e5d60378361274c565b9150612e6882612e01565b603782019050919050565b7f2261747472696275746573223a205b0000000000000000000000000000000000600082015250565b6000612ea9600f8361274c565b9150612eb482612e73565b600f82019050919050565b7f2274726169745f74797065223a2022436f75727365204e616d65222c00000000600082015250565b6000612ef5601c8361274c565b9150612f0082612ebf565b601c82019050919050565b7f2276616c7565223a202200000000000000000000000000000000000000000000600082015250565b6000612f41600a8361274c565b9150612f4c82612f0b565b600a82019050919050565b7f2200000000000000000000000000000000000000000000000000000000000000600082015250565b6000612f8d60018361274c565b9150612f9882612f57565b600182019050919050565b7f7d2c000000000000000000000000000000000000000000000000000000000000600082015250565b6000612fd960028361274c565b9150612fe482612fa3565b600282019050919050565b7f2274726169745f74797065223a20224f434944222c0000000000000000000000600082015250565b600061302560158361274c565b915061303082612fef565b601582019050919050565b7f7d00000000000000000000000000000000000000000000000000000000000000600082015250565b600061307160018361274c565b915061307c8261303b565b600182019050919050565b7f5d00000000000000000000000000000000000000000000000000000000000000600082015250565b60006130bd60018361274c565b91506130c882613087565b600182019050919050565b60006130de82612c88565b91506130e982612cd4565b91506130f582876127b4565b915061310082612d20565b915061310c8286612757565b915061311782612d6c565b915061312282612dde565b915061312d82612e50565b915061313882612e9c565b915061314382612c88565b915061314e82612ee8565b915061315982612f34565b915061316582856127b4565b915061317082612f80565b915061317b82612fcc565b915061318682612c88565b915061319182613018565b915061319c82612f34565b91506131a88284612757565b91506131b382612f80565b91506131be82613064565b91506131c9826130b0565b91506131d482613064565b915081905095945050505050565b7f646174613a6170706c69636174696f6e2f6a736f6e3b6261736536342c000000600082015250565b6000613218601d8361274c565b9150613223826131e2565b601d82019050919050565b60006132398261320b565b91506132458284612757565b915081905092915050565b600060408201905061326560008301856121cb565b61327260208301846122e1565b9392505050565b7f4e487b7100000000000000000000000000000000000000000000000000000000600052601260045260246000fd5b60006132b382612136565b91506132be83612136565b9250826132ce576132cd613279565b5b828204905092915050565b60006132e482612136565b91506132ef83612136565b92508282026132fd81612136565b9150828204841483151761331457613313612872565b5b509291505056fe4142434445464748494a4b4c4d4e4f505152535455565758595a6162636465666768696a6b6c6d6e6f707172737475767778797a303132333435363738392b2fa26469706673582212201512ccb5991f90077eabd53330aa98c2d9eb2f4a64bd07f31db8d3f3ef93ffc564736f6c63430008180033",
  "linkReferences": {},
  "deployedLinkReferences": {}
}